:100000000AC023C022C021C09BC01FC074C01DC035
:100010001CC01BC01AC011241FBECFEDCDBF10E005
:10002000A0E6B0E0E8E6F5E003C0C89531960D9291
:10003000AE36B107D1F710E0AEE6B0E001C01D92D8
:10004000A038B107E1F777D18DC2DACFDF93CF9334
:1000500000D000D0CDB7DEB789836A834B832C8371
:100060008981803571F48A81823459F498B38B8107
:100070008095892388BB28B39C818B818923822B1F
:1000800088BB8981843471F48A81823459F497B3AE
:100090008B818095892387BB27B39C818B818923A2
:1000A000822B87BB8981803571F48A81843459F42D
:1000B00092B38B818095892382BB22B39C818B81F3
:1000C0008923822B82BB8981843471F48A818434B0
:1000D00059F491B38B818095892381BB21B39C8195
:1000E0008B818923822B81BB0F900F900F900F90F3
:1000F000CF91DF9108951F920F920FB60F921124A6
:100100008F939F93AF93BF9380916E0090916F00F8
:10011000A0917000B09171000196A11DB11D809356
:100120006E0090936F00A0937000B0937100BF9128
:10013000AF919F918F910F900FBE0F901F901895C8
:100140001F920F920FB60F9211242F933F934F934C
:100150005F936F937F938F939F93AF93BF93EF932F
:10016000FF93F89480917E00882309F4AFC080B398
:1001700026B330E096E0220F331F9A95E1F73070F6
:1001800090E0282B392B30937D0020937C0080E574
:1001900064E44FEF2FEF5ADF80E562E443E02FEF96
:1001A00055DF84E464E44FEF2FEF50DF84E462E432
:1001B00043E02FEF4BDF80917C0090917D00892BF5
:1001C00009F472C080917700882309F05CC08091A7
:1001D0006C00882309F457C081E0809377008091F8
:1001E0006E0090916F00A0917000B09171008093AB
:1001F000780090937900A0937A00B0937B001092DE
:100200006C0080E562E444E024E020DF20917C0083
:1002100030917D00822F932F019782239323892B86
:1002200079F540917200E42FF0E0EE0FFF1FE05AE5
:10023000FF4F808191818217930721F44F5F409394
:10024000720002C01092720080917200843071F5C9
:100250001092720080E562E448E128E0F7DE8091C8
:100260006E0090916F00A0917000B091710080932A
:10027000730090937400A0937500B093760016C03D
:100280001092720013C080916E0090916F00A09147
:100290007000B09171008093780090937900A093E2
:1002A0007A00B0937B0002C01092770010927E001B
:1002B00089B7806489BF1DBC1CBC8EB58B608EBDA8
:1002C00082EE94E09BBD8ABD789424C084E464E40B
:1002D0004FEF20E0BBDE84E462E443E020E0B6DEE2
:1002E00080E564E44FEF20E0B1DE80E562E443E0C6
:1002F00020E0ACDE81E080937E0089B7806489BF16
:100300001DBC1CBC8EB58A608EBD82E090E09BBD9A
:100310008ABD7894FF91EF91BF91AF919F918F919A
:100320007F916F915F914F913F912F910F900FBEF1
:100330000F901F9018950F931F9389B7826089BF04
:1003400012BE83B7836083BF89B7806489BF1DBC39
:100350001CBC8EB58B608EBD82EE94E09BBD8ABDC9
:10036000789484E464E44FEF2FEF70DE84E462E479
:100370004FE12FE16BDE80E564E44FEF2FEF66DEA7
:1003800080E562E443E023E061DE02E011E02091D9
:1003900073003091740040917500509176002115E2
:1003A00031054105510509F489C080916E00909195
:1003B0006F00A0917000B0917100821B930BA40B91
:1003C000B50B845F9140A040B04058F080917F0011
:1003D000882339F480E562E448E120E037DE1093B9
:1003E0007F0080916E0090916F00A0917000B0919D
:1003F000710020917300309174004091750050910C
:100400007600821B930BA40BB50B8C5B9240A04033
:10041000B04058F080917F00813039F480E562E48B
:1004200048E120E113DE00937F0080916E009091FF
:100430006F00A0917000B091710020917300309115
:1004400074004091750050917600821B930BA40BB1
:10045000B50B805B9440A040B04098F080917F0045
:10046000823079F41092730010927400109275002B
:100470001092760080E562E448E120E0E7DD10922A
:100480007F0020917300309174004091750050916D
:10049000760080916E0090916F00A0917000B091F5
:1004A000710082179307A407B50740F410927300F8
:1004B00010927400109275001092760020917800CE
:1004C0003091790040917A0050917B0021153105DF
:1004D00041055105E1F180916E0090916F00A0916E
:1004E0007000B0917100821B930BA40BB50BC297E7
:1004F000A105B10578F080E562E444E020E0A6DDE6
:10050000109278001092790010927A0010927B007D
:1005100010936C00209178003091790040917A001E
:1005200050917B0080916E0090916F00A0917000BF
:10053000B091710082179307A407B50740F4109299
:1005400078001092790010927A0010927B002CB5FE
:100550003DB58AB59BB58217930708F018CF1DBC2F
:080560001CBC15CFF894FFCF7D
:0E056800010002000400080010002000010045
:00000001FF
